:1000000089C0C0C8A2C0A1C05BC49FC09EC09DC023
:100010009CC09BC09AC086C298C0A1C296C095C021
:1000200094C093C092C00403090412011001FF00A0
:100030000008C016DC0500010102000109022000D1
:1000400001010080640904000002000000000705AF
:1000500001030800000705810308000012011001D8
:1000600002000008C016E1050001010200010902BA
:100070004300020100806409040000010202010043
:1000800005240010010424020205240600010524B1
:100090000103010705830308006409040100020A43
:1000A00000000007050102080000070581020800A2
:1000B0000020036D006D0064002E007A006F007256
:1000C000002E0077006500620064002E0070006C56
:1000D0000016035500530042006100730070005881
:1000E0000043004400430000001C037700770077C2
:1000F000002E00660069007300630068006C002E2B
:1001000000640065000E0355005300420061007357
:100110000070000011241FBECFE5D4E0DEBFCDBFCC
:1001200010E0A0E6B0E0E0EAF4E102C005900D9234
:10013000A637B107D9F712E0A6E7B0E001C01D92DB
:10014000AD3EB107E1F75BD3A9C95ACF83EC8093E9
:10015000A6008093D10008950895089585B783601F
:1001600085BF8BB780648BBFF1DF8AE58093A500E4
:100170008093D0000895FC018381813099F0823012
:1001800089F0833099F48281882341F486E290E0FB
:100190009093B5008093B40094E009C0813011F0D1
:1001A000823021F4CF012AD1982F01C090E080E461
:1001B00080937600892F0895FC0192811092A3000C
:1001C0008181882321F41092A40082E01DC0853033
:1001D00019F49093B70017C0863019F4CF01CBDF24
:1001E0000895883021F481E029EB30E00FC0893098
:1001F00019F49093B90007C08A3011F481E004C06B
:100200008B3009F4A3DF80E023EA30E03093B500BF
:100210002093B4000895CF93DF93282F8091B200EC
:10022000803118F4822F3AD13AC08D3241F56830CE
:10023000B1F5C22FD92F83EC80939A008AE5809381
:100240006000109276008881807619F0822F40D16C
:1002500002C0CE01B1DF982F8F3F39F4888187FD2E
:100260009E8180E88093760007C08F81882321F4E7
:100270008E81891708F4982F9093610010C08091A7
:10028000760087FF0CC0822F0BD18F3F21F48EE1C7
:100290008093600004C0882311F010926100DF9108
:1002A000CF9108951F93CF93DF93DC01162FEA01BE
:1002B000888184FF05C0898198E88927898302C0E5
:1002C0008AE58883AE014E5F5F4F212FFA018D9141
:1002D000819321501216DCF3612FCA014FD71C5FA6
:1002E0001883DF91CF911F91089540ED50E0DADF40
:1002F000089545EA50E0D6DF0895DC01662351F108
:100300008091760087FF04C0CD01D6D0682F22C02F
:100310002091B4003091B50086FF0BC080E090E0E2
:10032000F901E80FF91FE491ED9301966817C1F701
:1003300006C0F901962F81918D939150E1F761509C
:10034000862F90E06F5F0196820F931F9093B50008
:100350008093B400862F08951F9380916100682FC9
:10036000893008F068E0861B8093610080919A00D4
:1003700098E8892780939A008BE990E0BEDF182FD8
:10038000893060F4682F8BE990E0F8D6612F6C5FBC
:100390006C3041F08FEF8093610004C08FEF809349
:1003A00061006EE1609360001F9108956091B60056
:1003B000635067FD0FC02091B3008CE090E0821B7A
:1003C000910986549F4F27DF8091B600181614F4C8
:1003D0001092B6008091600084FF05C0809161009A
:1003E0008F3F09F0B9DF9AE086B3837031F4915002
:1003F000D9F71092B7001092B1000895FC018091D6
:10040000E4009381882301F1913019F48CE590E0A8
:100410001FC0923059F461E080E09BD28EE690E0FC
:100420009093B5008093B40083E408958281813075
:1004300019F481EB90E019C081ED90E09093B50044
:100440008093B40088E10895913041F48AE290E00D
:100450009093B5008093B40082E10895923059F4EE
:1004600061E080E076D28CE390E09093B5008093D9
:10047000B40080E208958281813041F489EE90E0F9
:100480009093B5008093B4008CE1089585E091E0ED
:100490009093B5008093B4008EE008950ED1089536
:1004A0009C018091DC008076803219F4C90177D1FB
:1004B0000895C9012BD408959C018091DC008076B9
:1004C000803219F4C9018AD10895C901BAD40895B6
:1004D000ACEDB0E0FC0188E001900D928150E1F7B5
:1004E00041E063E085E03CD28091DC0080768032A0
:1004F00011F403D00895EAD408959091DD00892F76
:100500008052823010F48FEF0895923249F4809136
:10051000DE0080FF05C082E080936A0080E00895DD
:1005200080E008959F938F931F921FB690912C00A7
:100530008091E9018F5F8093E9017894EF93FF93B5
:10054000ECEEF1E08150F195E80FF040F1959083E9
:10055000FF91EF911FBE1F908F919F9118957894F6
:100560001F920F920FB60F9211242F938F939F9388
:10057000EF93FF932091E8019091EA012917B9F0D8
:10058000F894E92FF0E0E851FF4F80818CB9E92F12
:10059000EF5FE093EA018091B60087FF06C0E21B9F
:1005A000E150E03210F01092B600789403C081E080
:1005B00080937F00FF91EF919F918F912F910F90EA
:1005C0000FBE0F901F90189580917F008823F1F047
:1005D0002091E8019091EA012917C1F010927F0063
:1005E000F894E92FF0E0E851FF4F80818CB9E92FB2
:1005F000EF5FE093EA018091B60087FF06C0E21B3F
:10060000E150E03210F01092B6007894089581E045
:1006100080937F0082B3836082BB8898899A2091FF
:100620006200309163004091640050916500CA01FE
:10063000B9019695879577956795605A7C41894E63
:100640009F4F0AD72150304080E12030380710F00A
:100650002FEF3FE029B930BD82E08BB9809168006F
:100660008550843008F083E0880F806880BD8091D9
:100670006700813019F480B5806304C0823019F4BA
:1006800080B5806280BD80916600882319F080B5B6
:10069000886080BD88ED8AB908951AB881B38C7FCF
:1006A00081BB82B38C7F82BB1092EA011092E80179
:1006B0001092EB011092E9010895DC018091E801AC
:1006C000E82FF0E0E851FF4F9D9190838F5F80937A
:1006D000E801615099F778DF41E063E085E040D1BF
:1006E0008091EA0181509091E801891B803218F4D1
:1006F0008FEF8093B60008958091A50084FF28C0F5
:100700002091E9019091EB01A7E7B0E060E00DC016
:10071000E92FF0E0E451FE4F80818D936F5F9F5F82
:10072000683019F49093EB010AC0291789F72093D8
:10073000EB01662321F480916900882349F06093DE
:10074000690087E790E0D5DD41E063E085E008D10E
:100750008091E400882309F190916A009923E9F0DF
:100760008091D00084FF19C0933041F460E08DE6A1
:1007700090E0BBDD81E080936A000AC0923021F4F2
:1007800068E08DE690E003C062E08BE690E0ADDDCE
:1007900080916A00815080936A0016DF0895FC0101
:1007A0008091DD008032C1F48BE48093A60081E06B
:1007B0008093690080819181A281B3810097A10516
:1007C000B10511F46ADF08C0A2E6B0E087E001904D
:1007D0000D928150E1F71BDF81E008959C0180912B
:1007E000DD00813211F080E00895D901E2E6F0E009
:1007F00087E001900D928150E1F787E008950F9313
:100800001F93CF93DF938FE028E130E00FB6F89489
:10081000A89521BD0FBE81BDA298AA9A8CD062E096
:100820008EE297D083E083BFB89A80E197E22CE212
:1008300031E0F9013197F1F70197D9F7B89883B30F
:1008400086958695809581708093E4008111DFDE26
:1008500057D284DC7894C1E0D0E00CE211E0A89596
:100860004091E400242F30E083B390E09695879583
:10087000969587958C279D2781709070281739074A
:10088000E1F088EE93E004C0F8013197F1F70197A9
:100890000097D1F783B390E09695879596958795C5
:1008A0008C279D27817090702817390719F088EEE2
:1008B00093E0EACF442309F434D478DD1DDFCFCFB1
:1008C00078941F920F920FB60F9211248F939F93DB
:1008D000809180008F5F80938000909181009817B5
:1008E00098F41092800080918500882369F08150EF
:1008F00080938500882341F4809183008093810058
:100900008091840080938200909180008091820089
:10091000981710F4A09A01C0A0988091E500882350
:1009200019F081508093E5009F918F910F900FBE39
:100930000F901F9018958FEF809381001092820086
:1009400010928500A89889B7806489BF87E085BD2B
:10095000089580938100609382001092850008952D
:10096000982F80918500882341F4809181008093A5
:100970008300809182008093840060938100409383
:100980008200909385000895BA9AC29882E58DB945
:1009900081E08EB90895882319F487EF94E002C0AE
:1009A00083E195E09093E7008093E600089592B785
:1009B00082B7891B8C30E0F3089587B38C6287BBC4
:1009C000C298C598F4DFC29AF2DFC2988091E6001F
:1009D0009091E7008351954009F4D6DF089587B3DD
:1009E000837D87BB88B3837D88BB1DB80895FF9244
:1009F0000F931F93F82E10E000E0F7FE02C0C39A99
:100A000001C0C398110FB4991F5FC59AD0DFC59874
:100A1000CEDF0F5F083011F0FF0CEFCF812F1F9159
:100A20000F91FF9008958FB9779BFECF8FB10895F6
:100A30000F931F9300E22AC0E091E600F091E700D7
:100A40008CEA0995E091E600F091E70083E50995CD
:100A5000E091E600F091E70080E00995182FE09121
:100A6000E600F091E70080E00995133511F480E08D
:100A700010C01DB8C59A9BDFC59899DF8091E6002C
:100A80009091E7008351954009F47EDF0150A0F674
:100A900081E01F910F910895EF92FF920F931F93A2
:100AA0007B018C01862F8170880F880F880FE09161
:100AB000E600F091E70080620995D801C70129E0BE
:100AC000B695A795979587952A95D1F7E091E60079
:100AD000F091E700099516950795F794E794E09152
:100AE000E600F091E7008E2D0995E091E600F09187
:100AF000E70080E009951F910F91FF90EF90089516
:100B00000F931F938C01E091E600F091E70080EADB
:100B10000995E091E600F091E700812F0995E091B9
:100B2000E600F091E700802F0995E091E600F09152
:100B3000E70080E009951F910F910895FF920F93B0
:100B40001F938C01F62EE091E600F091E70080EC17
:100B50000995E091E600F091E700812F0995E09179
:100B6000E600F091E700802F0995E091E600F09112
:100B7000E7008F2D09958EE1A3D080E01F910F91A2
:100B8000FF900895CF92DF92EF92FF920F931F9301
:100B90006B017C01142FE091E600F091E7008CE4FA
:100BA0000995D701C60149E0B695A7959795879510
:100BB0004A95D1F7E091E600F091E7000995D70159
:100BC000C601B695A79597958795E091E600F091B7
:100BD000E7000995E091E600F091E70080E00995D3
:100BE0001F3F19F48FE06CD007C002B71EE1C701A8
:100BF000B60152DF8F3F11F080E008C082B7801B42
:100C00008D33A8F302B7115091F781E01F910F9136
:100C1000FF90EF90DF90CF900895CF92DF92EF9208
:100C2000FF920F931F936B017C01042F122F862FCD
:100C30008170880F880F880FE091E600F091E7003F
:100C400080640995D701C60169E0B695A795979587
:100C500087956A95D1F7E091E600F091E700099554
:100C6000D701C601B695A79597958795E091E600BF
:100C7000F091E7000995E091E600F091E700802F00
:100C800009951123A9F00F3719F48FE019D010C07E
:100C900002B71EE1C701B601FFDE8F3749F482B704
:100CA000801B8D33B8F302B71150A1F781E001C06A
:100CB00080E01F910F91FF90EF90DF90CF9008950B
:100CC000382F90E006C022B782B7821B8C33E0F346
:100CD0009F5F9317C0F308959C01E199FECF3FBB3E
:100CE0002EBBE09A8DB308959C01E199FECF3FBBE6
:100CF0002EBB6DBB0FB6F894E29AE19A0FBE089531
:100D000080E090E0E9DF8093EC020895BF92CF92FB
:100D1000DF92EF92FF920F931F93CF93DF939C018B
:100D2000B62E80918600813021F4E901DD24CC24A7
:100D30007AC08430D1F3DD24DA9478C080918600C3
:100D4000813079F58091960090919700E090920023
:100D5000F09093000091940010919500892B31F44C
:100D600021E04881C801B70158DF21C020E0488157
:100D7000C801B70152DF809199008150809399009A
:100D80008823A9F46091920070919300809194005F
:100D9000909195004881F6DE8091960080939900AD
:100DA00006C068818091920090919300C7DE809187
:100DB0008700909188000197909388008093870026
:100DC000892BE1F4109286008091980081FF14C075
:100DD0008091990090E020919600309197008217C1
:100DE000930751F06091920070919300809194006C
:100DF000909195004881C6DEDD24D39480919200C5
:100E000090919300A0919400B09195000196A11D3E
:100E1000B11D8093920090939300A0939400B0939F
:100E20009500C3942196CB1408F488CF8D2DDF91C3
:100E3000CF911F910F91FF90EF90DF90CF90BF90D7
:100E400008950F931F93CF93DF939C01062F8091FA
:100E500086008250823010F00FEF32C0E90110E0BE
:100E600029C080918600823051F460919200709187
:100E7000930080919400909195000EDE05C08091C2
:100E80009200909193003CDE888380919200909133
:100E90009300A0919400B09195000196A11DB11D01
:100EA0008093920090939300A0939400B093950048
:100EB0001F5F21961017A8F2083010F410928600D8
:100EC000802FDF91CF911F910F9108958091DD00C8
:100ED000813079F48091EC02882311F080E001C028
:100EE00081E059DD1092890068DD66E187E131DD3E
:100EF0000FC1823021F473DD61E080E0F8CF8330F0
:100F000031F5E091E600F091E7008091DE0009956F
:100F100080938A00E091E600F091E7008091DF0085
:100F2000099580938B00E091E600F091E7008091B5
:100F3000E000099580938C00E091E600F091E700D5
:100F40008091E100099580938D0024E0E2C0843017
:100F500031F5809189008823A1F49091DF0080E031
:100F60002091DE0030E0822B932BAA2797FDA095DD
:100F7000BA2F8093920090939300A0939400B09323
:100F800095009091E30080E02091E20030E0822B18
:100F9000932B909388008093870082E0A0C08730D5
:100FA00031F5809189008823A1F49091DF0080E0E1
:100FB0002091DE0030E0822B932BAA2797FDA0958D
:100FC000BA2F8093920090939300A0939400B093D3
:100FD00095009091E30080E02091E20030E0822BC8
:100FE000932B909388008093870083E078C08530AE
:100FF00029F41EDD80938A0021E08BC0863009F041
:1010000041C0809189008823A1F49091DF0080E0A5
:101010002091DE0030E0822B932BAA2797FDA0952C
:10102000BA2F8093920090939300A0939400B09372
:1010300095008091E0009091E100292F2F7020937E
:101040009800492F50E0407F507094E0440F551FA6
:101050009A95E1F7480F511D5093970040939600E1
:1010600020FF02C0409399009091E30080E020911E
:10107000E20030E0822B932B9093880080938700CE
:1010800081E02DC0883079F5809189008823A1F412
:101090009091DF0080E02091DE0030E0822B932BE6
:1010A000AA2797FDA095BA2F809392009093930062
:1010B000A0939400B0939500109297001092960020
:1010C000109298009091E30080E02091E20030E0DF
:1010D000822B932B909388008093870084E08093E9
:1010E00086002FEF16C0893099F481E08093890043
:1010F0008091DE009091DF00A091E000B091E100CE
:101100008093920090939300A0939400B0939500E5
:1011100020E08AE890E09093B5008093B400822F9D
:10112000089590E08091EC02882309F491E0909377
:10113000EC02992321F04AE064E183E003C041E03E
:1011400064E085E00DDC6091EC0280E090E0CCDDB5
:101150000895A82FB92F80E090E041E050EA609513
:101160006F5F58F42D9138EF82279795879510F08F
:10117000842795273F5FC8F3F3CF0895EADF8D9367
:101180009D930895CF93CFB7CF93B09BFECFB09BE5
:1011900009C0B09B07C0B09B05C0B09B03C0B09B0B
:1011A00001C0A6C0DF93C091B300DD27C654DF4F56
:1011B000B09B02C0DF91EBCF2F930F931F9306B329
:1011C0002FEF00FB20F94F933F9316B34FEF01270A
:1011D00000FB21F93BE031C04E7F012F16B32160A7
:1011E00028C0102F4D7F2260000006B329C04B7F1E
:1011F0002460012F000016B32BC016B3477F286070
:101200002AC04F7E06B320612CC04F7D16B32062EA
:101210002FC04F7B06B3206432C0422706B34993E8
:101220004FEF0000102710FB20F916B31370C9F11F
:10123000297F91F2012700FB21F906B3237F89F270
:10124000315058F1102710FB22F916B3277E79F29E
:10125000012700FB23F92F7C81F206B3102710FB36
:1012600024F92F7971F200C016B3012700FB25F98C
:101270002F7359F200C006B3102710FB26F9223055
:1012800040F200C016B3012700FB27F9243028F6EE
:101290004F77206816B30000F9CF10E41ABF00277B
:1012A0001CC03B503195C31BD04010E41ABF0881CD
:1012B000033C11F10B3401F12091B1001981110FA0
:1012C0001213EDCF4A81441F093659F10D3211F046
:1012D000013E29F74F7009F0042F0093B8003F91A9
:1012E0004F911F910F912F91DF91CAB7C6FD4DCF3E
:1012F000CF91CFBFCF9118950091B800002379F31B
:101300001091B6001123F9F53430FAF13093B6009C
:101310000093B2001091B3003BE0311B3093B30057
:1013200034C00091B600013074F50AE54F7049F4FD
:101330003091600034FD2BC000936000CAE9D0E01A
:101340002AC0433049F03091A50034FD20C00093FD
:10135000A500C6EAD0E01FC03091D00034FD17C010
:101360000093D000C1EDD0E016C0052710E008BB07
:101370001FC0052722C0052727C005272CC0052729
:1013800010E008BB33C04AE503C042ED01C0432F63
:10139000C4E1D0E032E017B31360C09A08B317BBC2
:1013A0005F9353E020E820FF052708BB279517959A
:1013B0001C3FD8F620FF0527279508BB17951C3F33
:1013C000C0F620FF05272795179508BB1C3F98F608
:1013D00020FF0527279517951C3F08BB70F600C016
:1013E000499120FF052708BB279517951C3F38F624
:1013F00020FF0527279508BB17951C3F38F520FFD0
:1014000005272795179508BB1C3F10F520FF0527DA
:10141000279517951C3F08BBE8F4242F3A9519F639
:101420000C7F5F9108BB1091B700110FC651D040DF
:1014300011F01093B10010E41ABF016017B31C7FC4
:10144000402F4C7F08BB17BB48BB49CF0527D3CFE4
:101450000527D8CF0527DDCFA1E21A2EAA1BBB1B7B
:10146000FD010DC0AA1FBB1FEE1FFF1FA217B30770
:10147000E407F50720F0A21BB30BE40BF50B661F86
:10148000771F881F991F1A9469F76095709580954A
:1014900090959B01AC01BD01CF010895F894FFCF59
:1014A0005AFF8025000000000801030300A120006E
:0614B00000000002000034
:00000001FF
