:1000000090C0DDC8A9C0A8C0A7C0A6C0A5C0A4C094
:10001000A3C06EC4A1C0A0C09FC09EC09DC09CC014
:100020009BC09AC086C298C0A1C296C095C094C019
:1000300093C092C00403090412011001FF000008DC
:10004000C016DC05000101020001090220000101C7
:10005000008064090400000200000000070501039D
:1000600008000007058103080000120110010200CA
:100070000008C016E1050001010200010902430069
:10008000020100806409040000010202010005244D
:1000900000100104240202052406000105240103C6
:1000A000010705830308006409040100020A000037
:1000B0000007050102080000070581020800002072
:1000C000036D006D0064002E007A006F0072002E38
:1000D0000077006500620064002E0070006C00165E
:1000E0000355005300420061007300700058004344
:1000F000004400430000001C037700770077002EC7
:1001000000660069007300630068006C002E0064E4
:100110000065000E0355005300420061007300703B
:10012000000011241FBECFEFD4E0DEBFCDBF11E031
:10013000A0E0B1E0EAEDF4E102C005900D92A63135
:10014000B107D9F713E0A6E1B1E001C01D92AD38C7
:10015000B107E1F767D3BFC953CF83EC8093460162
:1001600080937101089508950895E9E6F0E0808193
:1001700083608083E89AF1DF8AE58093450180936C
:1001800070010895FC018381813099F0823089F0FB
:10019000833099F48281882341F484E390E0909342
:1001A00055018093540194E009C0813011F08230F0
:1001B00021F4CF012AD1982F01C090E080E48093F0
:1001C0001601892F0895FC019281109243018181CB
:1001D000882321F41092440182E01DC0853019F477
:1001E0009093570117C0863019F4CF01CBDF0895E3
:1001F000883021F481E029E531E00FC0893019F41D
:100200009093590107C08A3011F481E004C08B300B
:1002100009F4A3DF80E023E431E03093550120931B
:1002200054010895CF93DF93282F8091520180319C
:1002300018F4822F3AD13AC08D3241F56830B1F5C9
:10024000C22FD92F83EC80933A018AE58093000175
:10025000109216018881807619F0822F40D102C059
:10026000CE01B1DF982F8F3F39F4888187FD9E81C1
:1002700080E88093160107C08F81882321F48E8146
:10028000891708F4982F9093010110C080911601EE
:1002900087FF0CC0822F0BD18F3F21F48EE180931A
:1002A000000104C0882311F010920101DF91CF9169
:1002B00008951F93CF93DF93DC01162FEA01888105
:1002C00084FF05C0898198E88927898302C08AE56F
:1002D0008883AE014E5F5F4F212FFA018D9181938C
:1002E00021501216DCF3612FCA0165D71C5F1883F9
:1002F000DF91CF911F91089540E751E0DADF089533
:1003000045E451E0D6DF0895DC01662351F1809188
:10031000160187FF04C0CD01D6D0682F22C02091DE
:1003200054013091550186FF0BC080E090E0F90147
:10033000E80FF91FE491ED9301966817C1F706C025
:10034000F901962F81918D939150E1F76150862F9D
:1003500090E06F5F0196820F931F909355018093F9
:100360005401862F08951F9380910101682F8930D1
:1003700008F068E0861B8093010180913A0198E8BB
:10038000892780933A018BE391E0BEDF182F8930F3
:1003900060F4682F8BE391E00ED7612F6C5F6C30B7
:1003A00041F08FEF8093010104C08FEF8093010132
:1003B0006EE1609300011F910895609156016350B2
:1003C00067FD0FC0209153018CE090E0821B9109E2
:1003D000865A9E4F27DF80915601181614F410920A
:1003E00056018091000184FF05C0809101018F3F7B
:1003F00009F0B9DF9AE089B1847431F49150D9F7EA
:1004000010925701109251010895FC0180918401CE
:100410009381882301F1913019F48AE690E01FC09E
:10042000923059F461E080E0AFD28CE790E0909395
:1004300055018093540183E408958281813019F439
:100440008FEB90E019C08FED90E090935501809371
:10045000540188E10895913041F488E390E090934D
:1004600055018093540182E10895923059F461E07E
:1004700080E08AD28AE490E0909355018093540101
:1004800080E208958281813041F487EF90E090937B
:100490005501809354018CE1089583E191E090939C
:1004A0005501809354018EE008951AD108959C015E
:1004B00080917C018076803219F4C90183D108953E
:1004C000C90141D408959C0180917C0180768032DD
:1004D00019F4C90196D10895C901D0D40895ACE7A3
:1004E000B1E0FC0188E001900D928150E1F741E01C
:1004F00063E085E050D280917C018076803211F4F7
:1005000003D0089500D5089590917D01892F8052E0
:10051000823010F48FEF0895923249F480917E0179
:1005200080FF05C082E080930A0180E0089580E0AA
:1005300008959F938F931F921FB69091C60080914C
:1005400089028F5F809389027894EF93FF93ECE8A0
:10055000F2E08150F195E80FF040F1959083FF9122
:10056000EF911FBE1F908F919F91189578941F92C5
:100570000F920FB60F9211242F938F939F93EF93A7
:10058000FF932091880290918A022917C1F0F89474
:10059000E92FF0E0E857FE4F80818093C600E92FF5
:1005A000EF5FE0938A028091560187FF06C0E21B4D
:1005B000E150E03210F010925601789403C081E0CF
:1005C00080931F01FF91EF919F918F912F910F9039
:1005D0000FBE0F901F90189580911F018823F9F08E
:1005E0002091880290918A022917C9F010921F0168
:1005F000F894E92FF0E0E857FE4F80818093C60021
:10060000E92FEF5FE0938A028091560187FF06C0D1
:10061000E21BE150E03210F01092560178940895F8
:1006200081E080931F018BB183608BB95098519A00
:100630002091020130910301409104015091050184
:10064000CA01B9019695879577956795605A7C415F
:10065000894E9F4F1ED72150304080E1203038070F
:1006600010F02FEF3FE02093C4003093C50082E0EC
:100670008093C000809108018550843008F083E0A9
:10068000880F8093C20080910701813021F480910E
:10069000C200806305C0823029F48091C20080626C
:1006A0008093C20080910601882329F08091C200C6
:1006B00088608093C20088ED8093C10008951092F5
:1006C000C1008AB18C7F8AB98BB18C7F8BB91092B3
:1006D0008A021092880210928B0210928902089569
:1006E000DC0180918802E82FF0E0E857FE4F9D91F1
:1006F00090838F5F80938802615099F76DDF41E0AE
:1007000063E085E048D180918A028150909188020F
:10071000891B803218F48FEF8093560108958091E1
:10072000450184FF28C02091890290918B02A7E1A6
:10073000B1E060E00DC0E92FF0E0E457FD4F8081AB
:100740008D936F5F9F5F683019F490938B020AC09E
:10075000291789F720938B02662321F480910901E0
:10076000882349F06093090187E191E0C9DD41E008
:1007700063E085E010D180918401882309F1909194
:100780000A019923E9F08091700184FF19C0933028
:1007900041F460E08DE091E0AFDD81E080930A01FB
:1007A0000AC0923021F468E08DE091E003C062E07D
:1007B0008BE091E0A1DD80910A01815080930A01D4
:1007C0000BDF0895FC0180917D018032C1F48BE440
:1007D0008093460181E08093090180819181A2810B
:1007E000B3810097A105B10511F469DF08C0A2E04B
:1007F000B1E087E001900D928150E1F711DF81E0D7
:1008000008959C0180917D01813211F080E008956E
:10081000D901E2E0F1E087E001900D928150E1F72B
:1008200087E008950F931F93CF93DF938FE028E124
:1008300030E00FB6F894A895209360000FBE809327
:10084000600055985D9A8FD062E08EE29DD083E083
:1008500085BD569A80E197E22CE231E0F9013197AB
:10086000F1F70197D9F7569889B1829586958770E7
:1008700080958170809384018111D2DE5ED275DC17
:100880007894C1E0D0E00CE211E0A8954091840199
:10089000242F30E089B190E065E0969587956A95C0
:1008A000E1F78C279D278170907028173907E9F0B0
:1008B00088EE93E004C0F8013197F1F701970097B3
:1008C000D1F789B190E055E0969587955A95E1F773
:1008D0008C279D27817090702817390719F088EEB2
:1008E00093E0E9CF442309F439D467DD18DFCDCF95
:1008F00078941F920F920FB60F9211248F939F93AB
:10090000809120018F5F80932001909121019817A1
:1009100098F41092200180912501882369F081507C
:1009200080932501882341F4809123018093210144
:1009300080912401809322019091200180912201D5
:10094000981710F4389A01C038988091850188234F
:1009500019F08150809385019F918F910F900FBE68
:100960000F901F9018958FEF809321011092220114
:1009700010922501409881E0809370001092B000A1
:1009800087E08093B1000895809321016093220154
:10099000109225010895982F80912501882341F414
:1009A0008091210180932301809122018093240171
:1009B0006093210140932201909325010895229A8A
:1009C0002A9882E58CBD81E08DBD0895882319F4B5
:1009D00082E195E002C08EE295E0909387018093DA
:1009E0008601089596B586B5891B8C30E0F308958D
:1009F00084B1896284B928982D98F4DF289AF2DFAF
:100A0000289880918601909187018E52954009F433
:100A1000D6DF089584B1867D84B985B1867D85B998
:100A20001CBC0895FF920F931F93F82E10E000E076
:100A3000F7FE02C02B9A01C02B98110F1C991F5F63
:100A40002D9AD0DF2D98CEDF0F5F083011F0FF0C0C
:100A5000EFCF812F1F910F91FF9008958EBD0DB4A0
:100A600007FEFDCF8EB508950F931F9300E22AC0B5
:100A7000E0918601F09187018CEA0995E091860169
:100A8000F091870183E50995E0918601F091870156
:100A900080E00995182FE0918601F091870180E0B0
:100AA0000995133511F480E010C01CBC2D9A9ADF13
:100AB0002D9898DF80918601909187018E52954004
:100AC00009F47DDF0150A0F681E01F910F91089598
:100AD000EF92FF920F931F937B018C01862F817001
:100AE000880F880F880FE0918601F091870180625E
:100AF0000995D801C70129E0B695A79597958795DF
:100B00002A95D1F7E0918601F09187010995169514
:100B10000795F794E794E0918601F09187018E2D77
:100B20000995E0918601F091870180E009951F9178
:100B30000F91FF90EF9008950F931F938C01E09118
:100B40008601F091870180EA0995E0918601F09194
:100B50008701812F0995E0918601F0918701802F0F
:100B60000995E0918601F091870180E009951F9138
:100B70000F910895FF920F931F938C01F62EE09131
:100B80008601F091870180EC0995E0918601F09152
:100B90008701812F0995E0918601F0918701802FCF
:100BA0000995E0918601F09187018F2D09958EE1DD
:100BB000A3D080E01F910F91FF900895CF92DF9214
:100BC000EF92FF920F931F936B017C01142FE09122
:100BD0008601F09187018CE40995D701C60149E0AF
:100BE000B695A795979587954A95D1F7E091860197
:100BF000F09187010995D701C601B695A7959795FC
:100C00008795E0918601F09187010995E091860131
:100C1000F091870180E009951F3F19F48FE06CD0B7
:100C200007C006B51EE1C701B60152DF8F3F11F0C4
:100C300080E008C086B5801B8D33A8F306B511503F
:100C400091F781E01F910F91FF90EF90DF90CF908F
:100C50000895CF92DF92EF92FF920F931F936B0153
:100C60007C01042F122F862F8170880F880F880F28
:100C7000E0918601F091870180640995D701C60152
:100C800069E0B695A795979587956A95D1F7E09114
:100C90008601F09187010995D701C601B695A79500
:100CA00097958795E0918601F09187010995E091EC
:100CB0008601F0918701802F09951123A9F00F3744
:100CC00019F48FE019D010C006B51EE1C701B601B6
:100CD000FFDE8F3749F486B5801B8D33B8F306B538
:100CE0001150A1F781E001C080E01F910F91FF90AA
:100CF000EF90DF90CF900895382F90E006C026B592
:100D000086B5821B8C33E0F39F5F9317C0F3089581
:100D10009C01F999FECF32BD21BDF89A80B50895A6
:100D20009C01F999FECF1FBA32BD21BD60BD0FB63F
:100D3000F894FA9AF99A0FBE089580E090E0E8DFFF
:100D400080938C030895BF92CF92DF92EF92FF922F
:100D50000F931F93CF93DF939C01B62E80912601B2
:100D6000813021F4E901DD24CC247AC08430D1F330
:100D7000DD24DA9478C080912601813079F5809164
:100D8000360190913701E0903201F09033010091EB
:100D9000340110913501892B31F421E04881C801DB
:100DA000B70157DF21C020E04881C801B70151DFFA
:100DB000809139018150809339018823A9F4609191
:100DC0003201709133018091340190913501488155
:100DD000F5DE809136018093390106C068818091EB
:100DE000320190913301C6DE809127019091280154
:100DF00001979093280180932701892BE1F41092A9
:100E000026018091380181FF14C08091390190E062
:100E100020913601309137018217930751F060918C
:100E200032017091330180913401909135014881F4
:100E3000C5DEDD24D3948091320190913301A091DD
:100E40003401B09135010196A11DB11D809332018D
:100E500090933301A0933401B0933501C39421964C
:100E6000CB1408F488CF8D2DDF91CF911F910F9176
:100E7000FF90EF90DF90CF90BF9008950F931F9356
:100E8000CF93DF939C01062F809126018250823000
:100E900010F00FEF32C0E90110E029C08091260167
:100EA000823051F4609132017091330180913401AC
:100EB000909135010DDE05C0809132019091330192
:100EC0003BDE88838091320190913301A0913401FF
:100ED000B09135010196A11DB11D8093320190930F
:100EE0003301A0933401B09335011F5F2196101791
:100EF000A8F2083010F410922601802FDF91CF91D4
:100F00001F910F91089580917D01813079F4809136
:100F10008C03882311F080E001C081E057DD10923E
:100F2000290166DD66E187E12FDD0FC1823021F402
:100F300071DD61E080E0F8CF833031F5E09186012A
:100F4000F091870180917E01099580932A01E091BB
:100F50008601F091870180917F01099580932B0193
:100F6000E0918601F091870180918001099580933D
:100F70002C01E0918601F091870180918101099512
:100F800080932D0124E0E2C0843031F58091290165
:100F90008823A1F490917F0180E020917E0130E0D0
:100FA000822B932BAA2797FDA095BA2F809332010D
:100FB00090933301A0933401B09335019091830154
:100FC00080E02091820130E0822B932B90932801C6
:100FD0008093270182E0A0C0873031F580912901FC
:100FE0008823A1F490917F0180E020917E0130E080
:100FF000822B932BAA2797FDA095BA2F80933201BD
:1010000090933301A0933401B09335019091830103
:1010100080E02091820130E0822B932B9093280175
:101020008093270183E078C0853029F41DDD80930B
:101030002A0121E08BC0863009F041C0809129014E
:101040008823A1F490917F0180E020917E0130E01F
:10105000822B932BAA2797FDA095BA2F809332015C
:1010600090933301A0933401B093350180918001B6
:1010700090918101292F2F7020933801492F50E042
:10108000407F507094E0440F551F9A95E1F7480F48
:10109000511D509337014093360120FF02C0409309
:1010A00039019091830180E02091820130E0822B10
:1010B000932B909328018093270181E02DC08830E5
:1010C00079F5809129018823A1F490917F0180E036
:1010D00020917E0130E0822B932BAA2797FDA095CB
:1010E000BA2F8093320190933301A0933401B093CF
:1010F000350110923701109236011092380190910B
:10110000830180E02091820130E0822B932B909329
:1011100028018093270184E0809326012FEF16C0D9
:10112000893099F481E08093290180917E0190912A
:101130007F01A0918001B091810180933201909351
:101140003301A0933401B093350120E08AE291E0AD
:101150009093550180935401822F089590E08091DF
:101160008C03882309F491E090938C03992321F058
:101170004AE064E183E003C041E064E085E00BDC29
:1011800060918C0380E090E0CBDD0895A82FB92F0B
:1011900080E090E041E050EA60956F5F58F42D9157
:1011A00038EF82279795879510F0842795273F5F22
:1011B000C8F3F3CF0895EADF8D939D930895CF93FD
:1011C000CFB7CF934E9BFECF4E9B09C04E9B07C01F
:1011D0004E9B05C04E9B03C04E9B01C0A6C0DF9333
:1011E000C0915301DD27C65ADE4F4E9B02C0DF91EE
:1011F000EBCF2F930F931F9309B12FEF06FB20F92D
:101200004F933F9319B14FEF012706FB21F93BE0C4
:1012100031C04E7F012F19B1216028C0102F4D7FA2
:101220002260000009B129C04B7F2460012F00001B
:1012300019B12BC019B1477F28602AC04F7E09B170
:1012400020612CC04F7D19B120622FC04F7B09B1A6
:10125000206432C0422709B149934FEF00001027A4
:1012600016FB20F919B11474C9F1297F91F20127F5
:1012700006FB21F909B1237F89F2315058F110277B
:1012800016FB22F919B1277E79F2012706FB23F913
:101290002F7C81F209B1102716FB24F92F7971F206
:1012A00000C019B1012706FB25F92F7359F200C0C0
:1012B00009B1102716FB26F9223040F200C019B1FF
:1012C000012706FB27F9243028F64F77206819B14B
:1012D0000000F9CF11E01CBB00271CC03B5031952A
:1012E000C31BD04011E01CBB0881033C11F10B343F
:1012F00001F1209151011981110F1213EDCF4A8193
:10130000441F093659F10D3211F0013E29F74F7093
:1013100009F0042F009358013F914F911F910F91B5
:101320002F91DF91CCB3C0FD4DCFCF91CFBFCF91E7
:10133000189500915801002379F31091560111235B
:10134000F9F53430FAF130935601009352011091BF
:1013500053013BE0311B3093530134C000915601DF
:10136000013074F50AE54F7049F43091000134FD05
:101370002BC000930001CAE3D1E02AC0433049F0FA
:101380003091450134FD20C000934501C6E4D1E011
:101390001FC03091700134FD17C000937001C1E788
:1013A000D1E016C0052710E00BB91FC0052722C0E9
:1013B000052727C005272CC0052710E00BB933C02F
:1013C0004AE503C042ED01C0432FC4E1D0E032E062
:1013D0001AB114645E9A0BB11AB95F9354E420E811
:1013E00020FF05270BB9279517951C3FD8F620FF3E
:1013F000052727950BB917951C3FC0F620FF052739
:10140000279517950BB91C3F98F620FF05272795C0
:1014100017951C3F0BB970F600C0499120FF0527B6
:101420000BB9279517951C3F38F620FF0527279500
:101430000BB917951C3F38F520FF05272795179501
:101440000BB91C3F10F520FF0527279517951C3F6A
:101450000BB9E8F4242F3A9519F60B7B5F910BB981
:1014600010915701110FC651D04011F01093510146
:1014700011E01CBB00641AB11B7B402F4B7B0BB9E6
:101480001AB94BB949CF0527D3CF0527D8CF0527A0
:10149000DDCFA1E21A2EAA1BBB1BFD010DC0AA1FA6
:1014A000BB1FEE1FFF1FA217B307E407F50720F0CD
:1014B000A21BB30BE40BF50B661F771F881F991F48
:1014C0001A9469F760957095809590959B01AC0191
:0A14D000BD01CF010895F894FFCF8D
:1014DA005AFF8025000000000801030300A1200034
:0614EA00000000020000FA
:00000001FF
